{
  "contractName": "ShareExpense",
  "abi": [
    {
      "constant": true,
      "inputs": [
        {
          "name": "",
          "type": "address"
        }
      ],
      "name": "balanceOf",
      "outputs": [
        {
          "name": "",
          "type": "uint256"
        }
      ],
      "payable": false,
      "stateMutability": "view",
      "type": "function"
    }
  ],
  "bytecode": "0x608060405234801561001057600080fd5b5060cf8061001f6000396000f3fe6080604052348015600f57600080fd5b506004361060285760003560e01c806370a0823114602d575b600080fd5b606c60048036036020811015604157600080fd5b81019080803573ffffffffffffffffffffffffffffffffffffffff1690602001909291905050506082565b6040518082815260200191505060405180910390f35b6000602052806000526040600020600091509050548156fea265627a7a723058202b74d29a95e127399c2d57225e802ab8c39f0d758fa0f2c6a18b657d36c4bfd364736f6c63430005090032",
  "source": "pragma solidity ^0.5.9;\r\n\r\ncontract ShareExpense{\r\n    mapping (address => uint256) public balanceOf;\r\n}\r\n",
  "sourcePath": "H:/CS/BC/expense-sharing/contracts/ShareExpense.sol",
  "compiler": {
    "name": "solc",
    "version": "0.5.9+commit.e560f70d.Emscripten.clang"
  },
  "schemaVersion": "3.0.11",
  "updatedAt": "2019-07-24T16:11:27.634Z",
  "devdoc": {
    "methods": {}
  },
  "userdoc": {
    "methods": {}
  }
}